{
  "_format": "hh-sol-artifact-1",
  "contractName": "ETHdos",
  "sourceName": "contracts/ethdos.sol",
  "abi": [
    {
      "inputs": [
        {
          "internalType": "address",
          "name": "_verifier",
          "type": "address"
        }
      ],
      "stateMutability": "nonpayable",
      "type": "constructor"
    },
    {
      "anonymous": false,
      "inputs": [
        {
          "indexed": true,
          "internalType": "address",
          "name": "owner",
          "type": "address"
        },
        {
          "indexed": true,
          "internalType": "address",
          "name": "approved",
          "type": "address"
        },
        {
          "indexed": true,
          "internalType": "uint256",
          "name": "tokenId",
          "type": "uint256"
        }
      ],
      "name": "Approval",
      "type": "event"
    },
    {
      "anonymous": false,
      "inputs": [
        {
          "indexed": true,
          "internalType": "address",
          "name": "owner",
          "type": "address"
        },
        {
          "indexed": true,
          "internalType": "address",
          "name": "operator",
          "type": "address"
        },
        {
          "indexed": false,
          "internalType": "bool",
          "name": "approved",
          "type": "bool"
        }
      ],
      "name": "ApprovalForAll",
      "type": "event"
    },
    {
      "anonymous": false,
      "inputs": [
        {
          "indexed": true,
          "internalType": "address",
          "name": "from",
          "type": "address"
        },
        {
          "indexed": true,
          "internalType": "address",
          "name": "to",
          "type": "address"
        },
        {
          "indexed": true,
          "internalType": "uint256",
          "name": "tokenId",
          "type": "uint256"
        }
      ],
      "name": "Transfer",
      "type": "event"
    },
    {
      "inputs": [
        {
          "internalType": "address",
          "name": "to",
          "type": "address"
        },
        {
          "internalType": "uint256",
          "name": "tokenId",
          "type": "uint256"
        }
      ],
      "name": "approve",
      "outputs": [],
      "stateMutability": "nonpayable",
      "type": "function"
    },
    {
      "inputs": [
        {
          "internalType": "address",
          "name": "owner",
          "type": "address"
        }
      ],
      "name": "balanceOf",
      "outputs": [
        {
          "internalType": "uint256",
          "name": "",
          "type": "uint256"
        }
      ],
      "stateMutability": "view",
      "type": "function"
    },
    {
      "inputs": [
        {
          "internalType": "uint256",
          "name": "tokenId",
          "type": "uint256"
        }
      ],
      "name": "getApproved",
      "outputs": [
        {
          "internalType": "address",
          "name": "",
          "type": "address"
        }
      ],
      "stateMutability": "view",
      "type": "function"
    },
    {
      "inputs": [
        {
          "internalType": "address",
          "name": "owner",
          "type": "address"
        },
        {
          "internalType": "address",
          "name": "operator",
          "type": "address"
        }
      ],
      "name": "isApprovedForAll",
      "outputs": [
        {
          "internalType": "bool",
          "name": "",
          "type": "bool"
        }
      ],
      "stateMutability": "view",
      "type": "function"
    },
    {
      "inputs": [
        {
          "internalType": "uint256[2]",
          "name": "a",
          "type": "uint256[2]"
        },
        {
          "internalType": "uint256[2][2]",
          "name": "b",
          "type": "uint256[2][2]"
        },
        {
          "internalType": "uint256[2]",
          "name": "c",
          "type": "uint256[2]"
        },
        {
          "internalType": "uint256[4]",
          "name": "signals",
          "type": "uint256[4]"
        }
      ],
      "name": "mint",
      "outputs": [],
      "stateMutability": "nonpayable",
      "type": "function"
    },
    {
      "inputs": [],
      "name": "name",
      "outputs": [
        {
          "internalType": "string",
          "name": "",
          "type": "string"
        }
      ],
      "stateMutability": "view",
      "type": "function"
    },
    {
      "inputs": [
        {
          "internalType": "uint256",
          "name": "tokenId",
          "type": "uint256"
        }
      ],
      "name": "ownerOf",
      "outputs": [
        {
          "internalType": "address",
          "name": "",
          "type": "address"
        }
      ],
      "stateMutability": "view",
      "type": "function"
    },
    {
      "inputs": [
        {
          "internalType": "address",
          "name": "from",
          "type": "address"
        },
        {
          "internalType": "address",
          "name": "to",
          "type": "address"
        },
        {
          "internalType": "uint256",
          "name": "tokenId",
          "type": "uint256"
        }
      ],
      "name": "safeTransferFrom",
      "outputs": [],
      "stateMutability": "nonpayable",
      "type": "function"
    },
    {
      "inputs": [
        {
          "internalType": "address",
          "name": "from",
          "type": "address"
        },
        {
          "internalType": "address",
          "name": "to",
          "type": "address"
        },
        {
          "internalType": "uint256",
          "name": "tokenId",
          "type": "uint256"
        },
        {
          "internalType": "bytes",
          "name": "_data",
          "type": "bytes"
        }
      ],
      "name": "safeTransferFrom",
      "outputs": [],
      "stateMutability": "nonpayable",
      "type": "function"
    },
    {
      "inputs": [
        {
          "internalType": "address",
          "name": "operator",
          "type": "address"
        },
        {
          "internalType": "bool",
          "name": "approved",
          "type": "bool"
        }
      ],
      "name": "setApprovalForAll",
      "outputs": [],
      "stateMutability": "nonpayable",
      "type": "function"
    },
    {
      "inputs": [
        {
          "internalType": "bytes4",
          "name": "interfaceId",
          "type": "bytes4"
        }
      ],
      "name": "supportsInterface",
      "outputs": [
        {
          "internalType": "bool",
          "name": "",
          "type": "bool"
        }
      ],
      "stateMutability": "view",
      "type": "function"
    },
    {
      "inputs": [],
      "name": "symbol",
      "outputs": [
        {
          "internalType": "string",
          "name": "",
          "type": "string"
        }
      ],
      "stateMutability": "view",
      "type": "function"
    },
    {
      "inputs": [
        {
          "internalType": "address",
          "name": "account",
          "type": "address"
        }
      ],
      "name": "toString",
      "outputs": [
        {
          "internalType": "string",
          "name": "",
          "type": "string"
        }
      ],
      "stateMutability": "pure",
      "type": "function"
    },
    {
      "inputs": [
        {
          "internalType": "uint256",
          "name": "value",
          "type": "uint256"
        }
      ],
      "name": "toString",
      "outputs": [
        {
          "internalType": "string",
          "name": "",
          "type": "string"
        }
      ],
      "stateMutability": "pure",
      "type": "function"
    },
    {
      "inputs": [
        {
          "internalType": "bytes",
          "name": "data",
          "type": "bytes"
        }
      ],
      "name": "toString",
      "outputs": [
        {
          "internalType": "string",
          "name": "",
          "type": "string"
        }
      ],
      "stateMutability": "pure",
      "type": "function"
    },
    {
      "inputs": [
        {
          "internalType": "bytes32",
          "name": "value",
          "type": "bytes32"
        }
      ],
      "name": "toString",
      "outputs": [
        {
          "internalType": "string",
          "name": "",
          "type": "string"
        }
      ],
      "stateMutability": "pure",
      "type": "function"
    },
    {
      "inputs": [
        {
          "internalType": "uint256",
          "name": "index",
          "type": "uint256"
        }
      ],
      "name": "tokenByIndex",
      "outputs": [
        {
          "internalType": "uint256",
          "name": "",
          "type": "uint256"
        }
      ],
      "stateMutability": "view",
      "type": "function"
    },
    {
      "inputs": [
        {
          "internalType": "uint256",
          "name": "tokenId",
          "type": "uint256"
        }
      ],
      "name": "tokenDesc",
      "outputs": [
        {
          "internalType": "string",
          "name": "",
          "type": "string"
        }
      ],
      "stateMutability": "view",
      "type": "function"
    },
    {
      "inputs": [
        {
          "internalType": "address",
          "name": "owner",
          "type": "address"
        },
        {
          "internalType": "uint256",
          "name": "index",
          "type": "uint256"
        }
      ],
      "name": "tokenOfOwnerByIndex",
      "outputs": [
        {
          "internalType": "uint256",
          "name": "",
          "type": "uint256"
        }
      ],
      "stateMutability": "view",
      "type": "function"
    },
    {
      "inputs": [
        {
          "internalType": "uint256",
          "name": "tokenId",
          "type": "uint256"
        }
      ],
      "name": "tokenURI",
      "outputs": [
        {
          "internalType": "string",
          "name": "",
          "type": "string"
        }
      ],
      "stateMutability": "view",
      "type": "function"
    },
    {
      "inputs": [],
      "name": "totalSupply",
      "outputs": [
        {
          "internalType": "uint256",
          "name": "",
          "type": "uint256"
        }
      ],
      "stateMutability": "view",
      "type": "function"
    },
    {
      "inputs": [
        {
          "internalType": "address",
          "name": "from",
          "type": "address"
        },
        {
          "internalType": "address",
          "name": "to",
          "type": "address"
        },
        {
          "internalType": "uint256",
          "name": "tokenId",
          "type": "uint256"
        }
      ],
      "name": "transferFrom",
      "outputs": [],
      "stateMutability": "nonpayable",
      "type": "function"
    }
  ],
  "bytecode": "0x60806040523480156200001157600080fd5b5060405162004925380380620049258339818101604052810190620000379190620001e6565b6040518060400160405280600681526020017f455448646f7300000000000000000000000000000000000000000000000000008152506040518060400160405280600681526020017f455448444f5300000000000000000000000000000000000000000000000000008152508160009080519060200190620000bb9291906200011f565b508060019080519060200190620000d49291906200011f565b50505080600e60006101000a81548173ffffffffffffffffffffffffffffffffffffffff021916908373ffffffffffffffffffffffffffffffffffffffff16021790555050620002c5565b8280546200012d9062000246565b90600052602060002090601f0160209004810192826200015157600085556200019d565b82601f106200016c57805160ff19168380011785556200019d565b828001600101855582156200019d579182015b828111156200019c5782518255916020019190600101906200017f565b5b509050620001ac9190620001b0565b5090565b5b80821115620001cb576000816000905550600101620001b1565b5090565b600081519050620001e081620002ab565b92915050565b600060208284031215620001f957600080fd5b60006200020984828501620001cf565b91505092915050565b60006200021f8262000226565b9050919050565b600073ffffffffffffffffffffffffffffffffffffffff82169050919050565b600060028204905060018216806200025f57607f821691505b602082108114156200027657620002756200027c565b5b50919050565b7f4e487b7100000000000000000000000000000000000000000000000000000000600052602260045260246000fd5b620002b68162000212565b8114620002c257600080fd5b50565b61465080620002d56000396000f3fe608060405234801561001057600080fd5b50600436106101425760003560e01c80636352211e116100b857806395d89b411161007c57806395d89b41146103d3578063a22cb465146103f1578063b11a19e81461040d578063b88d4fde1461043d578063c87b56dd14610459578063e985e9c51461048957610142565b80636352211e146102f75780636900a3ae1461032757806370a082311461035757806371aad10d146103875780637255ae7b146103b757610142565b806323b872dd1161010a57806323b872dd146101ff5780632f745c591461021b5780633e0984901461024b57806342842e0e1461027b5780634f6ccce71461029757806356ca623e146102c757610142565b806301ffc9a71461014757806306fdde0314610177578063081812fc14610195578063095ea7b3146101c557806318160ddd146101e1575b600080fd5b610161600480360381019061015c9190612b7c565b6104b9565b60405161016e91906134de565b60405180910390f35b61017f610533565b60405161018c91906134f9565b60405180910390f35b6101af60048036038101906101aa9190612c0f565b6105c5565b6040516101bc9190613430565b60405180910390f35b6101df60048036038101906101da9190612a89565b61064a565b005b6101e9610762565b6040516101f6919061377b565b60405180910390f35b61021960048036038101906102149190612983565b61076f565b005b61023560048036038101906102309190612a89565b6107cf565b604051610242919061377b565b60405180910390f35b61026560048036038101906102609190612c0f565b610874565b60405161027291906134f9565b60405180910390f35b61029560048036038101906102909190612983565b610913565b005b6102b160048036038101906102ac9190612c0f565b610933565b6040516102be919061377b565b60405180910390f35b6102e160048036038101906102dc919061291e565b6109ca565b6040516102ee91906134f9565b60405180910390f35b610311600480360381019061030c9190612c0f565b6109fb565b60405161031e9190613430565b60405180910390f35b610341600480360381019061033c9190612c0f565b610aad565b60405161034e91906134f9565b60405180910390f35b610371600480360381019061036c919061291e565b610ade565b60405161037e919061377b565b60405180910390f35b6103a1600480360381019061039c9190612bce565b610b96565b6040516103ae91906134f9565b60405180910390f35b6103d160048036038101906103cc9190612ac5565b610fe6565b005b6103db6113b6565b6040516103e891906134f9565b60405180910390f35b61040b60048036038101906104069190612a4d565b611448565b005b61042760048036038101906104229190612b53565b61145e565b60405161043491906134f9565b60405180910390f35b610457600480360381019061045291906129d2565b61148f565b005b610473600480360381019061046e9190612c0f565b6114f1565b60405161048091906134f9565b60405180910390f35b6104a3600480360381019061049e9190612947565b61181a565b6040516104b091906134de565b60405180910390f35b60007f780e9d63000000000000000000000000000000000000000000000000000000007bffffffffffffffffffffffffffffffffffffffffffffffffffffffff1916827bffffffffffffffffffffffffffffffffffffffffffffffffffffffff1916148061052c575061052b826118ae565b5b9050919050565b60606000805461054290613b13565b80601f016020809104026020016040519081016040528092919081815260200182805461056e90613b13565b80156105bb5780601f10610590576101008083540402835291602001916105bb565b820191906000526020600020905b81548152906001019060200180831161059e57829003601f168201915b5050505050905090565b60006105d082611990565b61060f576040517f08c379a00000000000000000000000000000000000000000000000000000000081526004016106069061369b565b60405180910390fd5b6004600083815260200190815260200160002060009054906101000a900473ffffffffffffffffffffffffffffffffffffffff169050919050565b6000610655826109fb565b90508073ffffffffffffffffffffffffffffffffffffffff168373ffffffffffffffffffffffffffffffffffffffff1614156106c6576040517f08c379a00000000000000000000000000000000000000000000000000000000081526004016106bd906136bb565b60405180910390fd5b8073ffffffffffffffffffffffffffffffffffffffff166106e56119fc565b73ffffffffffffffffffffffffffffffffffffffff16148061071457506107138161070e6119fc565b61181a565b5b610753576040517f08c379a000000000000000000000000000000000000000000000000000000000815260040161074a906135fb565b60405180910390fd5b61075d8383611a04565b505050565b6000600880549050905090565b61078061077a6119fc565b82611abd565b6107bf576040517f08c379a00000000000000000000000000000000000000000000000000000000081526004016107b6906136db565b60405180910390fd5b6107ca838383611b9b565b505050565b60006107da83610ade565b821061081b576040517f08c379a00000000000000000000000000000000000000000000000000000000081526004016108129061351b565b60405180910390fd5b600660008473ffffffffffffffffffffffffffffffffffffffff1673ffffffffffffffffffffffffffffffffffffffff168152602001908152602001600020600083815260200190815260200160002054905092915050565b60606000600b600084815260200190815260200160002060009054906101000a900473ffffffffffffffffffffffffffffffffffffffff1690506000600c600085815260200190815260200160002060009054906101000a900473ffffffffffffffffffffffffffffffffffffffff1690506000600d6000868152602001908152602001600020549050610909838383611e02565b9350505050919050565b61092e8383836040518060200160405280600081525061148f565b505050565b600061093d610762565b821061097e576040517f08c379a00000000000000000000000000000000000000000000000000000000081526004016109759061371b565b60405180910390fd5b600882815481106109b8577f4e487b7100000000000000000000000000000000000000000000000000000000600052603260045260246000fd5b90600052602060002001549050919050565b60606109f4826040516020016109e091906132cc565b604051602081830303815290604052610b96565b9050919050565b6000806002600084815260200190815260200160002060009054906101000a900473ffffffffffffffffffffffffffffffffffffffff169050600073ffffffffffffffffffffffffffffffffffffffff168173ffffffffffffffffffffffffffffffffffffffff161415610aa4576040517f08c379a0000000000000000000000000000000000000000000000000000000008152600401610a9b9061365b565b60405180910390fd5b80915050919050565b6060610ad782604051602001610ac39190613415565b604051602081830303815290604052610b96565b9050919050565b60008073ffffffffffffffffffffffffffffffffffffffff168273ffffffffffffffffffffffffffffffffffffffff161415610b4f576040517f08c379a0000000000000000000000000000000000000000000000000000000008152600401610b469061363b565b60405180910390fd5b600360008373ffffffffffffffffffffffffffffffffffffffff1673ffffffffffffffffffffffffffffffffffffffff168152602001908152602001600020549050919050565b606060006040518060400160405280601081526020017f30313233343536373839616263646566000000000000000000000000000000008152509050600060028451610be291906139c5565b6002610bee919061393e565b67ffffffffffffffff811115610c2d577f4e487b7100000000000000000000000000000000000000000000000000000000600052604160045260246000fd5b6040519080825280601f01601f191660200182016040528015610c5f5781602001600182028036833780820191505090505b5090507f300000000000000000000000000000000000000000000000000000000000000081600081518110610cbd577f4e487b7100000000000000000000000000000000000000000000000000000000600052603260045260246000fd5b60200101907effffffffffffffffffffffffffffffffffffffffffffffffffffffffffffff1916908160001a9053507f780000000000000000000000000000000000000000000000000000000000000081600181518110610d47577f4e487b7100000000000000000000000000000000000000000000000000000000600052603260045260246000fd5b60200101907effffffffffffffffffffffffffffffffffffffffffffffffffffffffffffff1916908160001a90535060005b8451811015610fdb57826004868381518110610dbe577f4e487b7100000000000000000000000000000000000000000000000000000000600052603260045260246000fd5b602001015160f81c60f81b7effffffffffffffffffffffffffffffffffffffffffffffffffffffffffffff1916901c60f81c60ff1681518110610e2a577f4e487b7100000000000000000000000000000000000000000000000000000000600052603260045260246000fd5b602001015160f81c60f81b82600283610e4391906139c5565b6002610e4f919061393e565b81518110610e86577f4e487b7100000000000000000000000000000000000000000000000000000000600052603260045260246000fd5b60200101907effffffffffffffffffffffffffffffffffffffffffffffffffffffffffffff1916908160001a90535082600f60f81b868381518110610ef4577f4e487b7100000000000000000000000000000000000000000000000000000000600052603260045260246000fd5b602001015160f81c60f81b1660f81c60ff1681518110610f3d577f4e487b7100000000000000000000000000000000000000000000000000000000600052603260045260246000fd5b602001015160f81c60f81b82600283610f5691906139c5565b6003610f62919061393e565b81518110610f99577f4e487b7100000000000000000000000000000000000000000000000000000000600052603260045260246000fd5b60200101907effffffffffffffffffffffffffffffffffffffffffffffffffffffffffffff1916908160001a9053508080610fd390613b76565b915050610d79565b508092505050919050565b610ff0600a611e5b565b6000610ffc600a611e71565b90507f0fc84d8fc6b9e19bed037c5f05378c39ccc273c233ffab25579eeae0ef7eec4e82600060048110611059577f4e487b7100000000000000000000000000000000000000000000000000000000600052603260045260246000fd5b60200201511461109e576040517f08c379a00000000000000000000000000000000000000000000000000000000081526004016110959061375b565b60405180910390fd5b816001600481106110d8577f4e487b7100000000000000000000000000000000000000000000000000000000600052603260045260246000fd5b6020020151600d6000838152602001908152602001600020819055508160026004811061112e577f4e487b7100000000000000000000000000000000000000000000000000000000600052603260045260246000fd5b6020020151600b600083815260200190815260200160002060006101000a81548173ffffffffffffffffffffffffffffffffffffffff021916908373ffffffffffffffffffffffffffffffffffffffff160217905550816003600481106111be577f4e487b7100000000000000000000000000000000000000000000000000000000600052603260045260246000fd5b6020020151600c600083815260200190815260200160002060006101000a81548173ffffffffffffffffffffffffffffffffffffffff021916908373ffffffffffffffffffffffffffffffffffffffff1602179055503373ffffffffffffffffffffffffffffffffffffffff16600c600083815260200190815260200160002060009054906101000a900473ffffffffffffffffffffffffffffffffffffffff1673ffffffffffffffffffffffffffffffffffffffff16146112b5576040517f08c379a00000000000000000000000000000000000000000000000000000000081526004016112ac9061361b565b60405180910390fd5b600e60009054906101000a900473ffffffffffffffffffffffffffffffffffffffff1673ffffffffffffffffffffffffffffffffffffffff16635fe8c13b868686866040518563ffffffff1660e01b81526004016113169493929190613497565b60206040518083038186803b15801561132e57600080fd5b505afa158015611342573d6000803e3d6000fd5b505050506040513d601f19601f820116820180604052508101906113669190612b2a565b6113a5576040517f08c379a000000000000000000000000000000000000000000000000000000000815260040161139c9061373b565b60405180910390fd5b6113af3382611e7f565b5050505050565b6060600180546113c590613b13565b80601f01602080910402602001604051908101604052809291908181526020018280546113f190613b13565b801561143e5780601f106114135761010080835404028352916020019161143e565b820191906000526020600020905b81548152906001019060200180831161142157829003601f168201915b5050505050905090565b61145a6114536119fc565b8383612059565b5050565b60606114888260405160200161147491906132e7565b604051602081830303815290604052610b96565b9050919050565b6114a061149a6119fc565b83611abd565b6114df576040517f08c379a00000000000000000000000000000000000000000000000000000000081526004016114d6906136db565b60405180910390fd5b6114eb848484846121c6565b50505050565b60606114fb61265e565b60405180610120016040528060fd81526020016144de60fd91398160006003811061154f577f4e487b7100000000000000000000000000000000000000000000000000000000600052603260045260246000fd5b602002018190525061156083610874565b8160016003811061159a577f4e487b7100000000000000000000000000000000000000000000000000000000600052603260045260246000fd5b60200201819052506040518060400160405280600d81526020017f3c2f746578743e3c2f7376673e0000000000000000000000000000000000000081525081600260038110611612577f4e487b7100000000000000000000000000000000000000000000000000000000600052603260045260246000fd5b6020020181905250600081600060038110611656577f4e487b7100000000000000000000000000000000000000000000000000000000600052603260045260246000fd5b602002015182600160038110611695577f4e487b7100000000000000000000000000000000000000000000000000000000600052603260045260246000fd5b6020020151836002600381106116d4577f4e487b7100000000000000000000000000000000000000000000000000000000600052603260045260246000fd5b60200201516040516020016116eb93929190613302565b604051602081830303815290604052905060006117eb600b600087815260200190815260200160002060009054906101000a900473ffffffffffffffffffffffffffffffffffffffff1660405160200161174591906132cc565b604051602081830303815290604052600c600088815260200190815260200160002060009054906101000a900473ffffffffffffffffffffffffffffffffffffffff1660405160200161179891906132cc565b604051602081830303815290604052600d6000898152602001908152602001600020546117c486612222565b6040516020016117d7949392919061337a565b604051602081830303815290604052612222565b9050806040516020016117fe91906133f3565b6040516020818303038152906040529150819350505050919050565b6000600560008473ffffffffffffffffffffffffffffffffffffffff1673ffffffffffffffffffffffffffffffffffffffff16815260200190815260200160002060008373ffffffffffffffffffffffffffffffffffffffff1673ffffffffffffffffffffffffffffffffffffffff16815260200190815260200160002060009054906101000a900460ff16905092915050565b60007f80ac58cd000000000000000000000000000000000000000000000000000000007bffffffffffffffffffffffffffffffffffffffffffffffffffffffff1916827bffffffffffffffffffffffffffffffffffffffffffffffffffffffff1916148061197957507f5b5e139f000000000000000000000000000000000000000000000000000000007bffffffffffffffffffffffffffffffffffffffffffffffffffffffff1916827bffffffffffffffffffffffffffffffffffffffffffffffffffffffff1916145b806119895750611988826123c1565b5b9050919050565b60008073ffffffffffffffffffffffffffffffffffffffff166002600084815260200190815260200160002060009054906101000a900473ffffffffffffffffffffffffffffffffffffffff1673ffffffffffffffffffffffffffffffffffffffff1614159050919050565b600033905090565b816004600083815260200190815260200160002060006101000a81548173ffffffffffffffffffffffffffffffffffffffff021916908373ffffffffffffffffffffffffffffffffffffffff160217905550808273ffffffffffffffffffffffffffffffffffffffff16611a77836109fb565b73ffffffffffffffffffffffffffffffffffffffff167f8c5be1e5ebec7d5bd14f71427d1e84f3dd0314c0f7b2291e5b200ac8c7c3b92560405160405180910390a45050565b6000611ac882611990565b611b07576040517f08c379a0000000000000000000000000000000000000000000000000000000008152600401611afe906135db565b60405180910390fd5b6000611b12836109fb565b90508073ffffffffffffffffffffffffffffffffffffffff168473ffffffffffffffffffffffffffffffffffffffff161480611b545750611b53818561181a565b5b80611b9257508373ffffffffffffffffffffffffffffffffffffffff16611b7a846105c5565b73ffffffffffffffffffffffffffffffffffffffff16145b91505092915050565b8273ffffffffffffffffffffffffffffffffffffffff16611bbb826109fb565b73ffffffffffffffffffffffffffffffffffffffff1614611c11576040517f08c379a0000000000000000000000000000000000000000000000000000000008152600401611c089061355b565b60405180910390fd5b600073ffffffffffffffffffffffffffffffffffffffff168273ffffffffffffffffffffffffffffffffffffffff161415611c81576040517f08c379a0000000000000000000000000000000000000000000000000000000008152600401611c789061359b565b60405180910390fd5b611c8c83838361242b565b611c97600082611a04565b6001600360008573ffffffffffffffffffffffffffffffffffffffff1673ffffffffffffffffffffffffffffffffffffffff1681526020019081526020016000206000828254611ce79190613a1f565b925050819055506001600360008473ffffffffffffffffffffffffffffffffffffffff1673ffffffffffffffffffffffffffffffffffffffff1681526020019081526020016000206000828254611d3e919061393e565b92505081905550816002600083815260200190815260200160002060006101000a81548173ffffffffffffffffffffffffffffffffffffffff021916908373ffffffffffffffffffffffffffffffffffffffff160217905550808273ffffffffffffffffffffffffffffffffffffffff168473ffffffffffffffffffffffffffffffffffffffff167fddf252ad1be2c89b69c2b068fc378daa952ba7f163c4a11628f55a4df523b3ef60405160405180910390a4611dfd83838361249f565b505050565b60606000611e0f856109ca565b90506000611e1c856109ca565b9050600081611e2a86610aad565b84604051602001611e3d93929190613333565b60405160208183030381529060405290508093505050509392505050565b6001816000016000828254019250508190555050565b600081600001549050919050565b600073ffffffffffffffffffffffffffffffffffffffff168273ffffffffffffffffffffffffffffffffffffffff161415611eef576040517f08c379a0000000000000000000000000000000000000000000000000000000008152600401611ee69061367b565b60405180910390fd5b611ef881611990565b15611f38576040517f08c379a0000000000000000000000000000000000000000000000000000000008152600401611f2f9061357b565b60405180910390fd5b611f446000838361242b565b6001600360008473ffffffffffffffffffffffffffffffffffffffff1673ffffffffffffffffffffffffffffffffffffffff1681526020019081526020016000206000828254611f94919061393e565b92505081905550816002600083815260200190815260200160002060006101000a81548173ffffffffffffffffffffffffffffffffffffffff021916908373ffffffffffffffffffffffffffffffffffffffff160217905550808273ffffffffffffffffffffffffffffffffffffffff16600073ffffffffffffffffffffffffffffffffffffffff167fddf252ad1be2c89b69c2b068fc378daa952ba7f163c4a11628f55a4df523b3ef60405160405180910390a46120556000838361249f565b5050565b8173ffffffffffffffffffffffffffffffffffffffff168373ffffffffffffffffffffffffffffffffffffffff1614156120c8576040517f08c379a00000000000000000000000000000000000000000000000000000000081526004016120bf906135bb565b60405180910390fd5b80600560008573ffffffffffffffffffffffffffffffffffffffff1673ffffffffffffffffffffffffffffffffffffffff16815260200190815260200160002060008473ffffffffffffffffffffffffffffffffffffffff1673ffffffffffffffffffffffffffffffffffffffff16815260200190815260200160002060006101000a81548160ff0219169083151502179055508173ffffffffffffffffffffffffffffffffffffffff168373ffffffffffffffffffffffffffffffffffffffff167f17307eab39ab6107e8899845ad3d59bd9653f200f220920489ca2b5937696c31836040516121b991906134de565b60405180910390a3505050565b6121d1848484611b9b565b6121dd848484846124a4565b61221c576040517f08c379a00000000000000000000000000000000000000000000000000000000081526004016122139061353b565b60405180910390fd5b50505050565b6060600082511415612245576040518060200160405280600081525090506123bc565b60006040518060600160405280604081526020016145db6040913990506000600360028551612274919061393e565b61227e9190613994565b600461228a91906139c5565b9050600060208261229b919061393e565b67ffffffffffffffff8111156122da577f4e487b7100000000000000000000000000000000000000000000000000000000600052604160045260246000fd5b6040519080825280601f01601f19166020018201604052801561230c5781602001600182028036833780820191505090505b509050818152600183018586518101602084015b8183101561237b576003830192508251603f8160121c168501518253600182019150603f81600c1c168501518253600182019150603f8160061c168501518253600182019150603f8116850151825360018201915050612320565b60038951066001811461239557600281146123a5576123b0565b613d3d60f01b60028303526123b0565b603d60f81b60018303525b50505050508093505050505b919050565b60007f01ffc9a7000000000000000000000000000000000000000000000000000000007bffffffffffffffffffffffffffffffffffffffffffffffffffffffff1916827bffffffffffffffffffffffffffffffffffffffffffffffffffffffff1916149050919050565b600073ffffffffffffffffffffffffffffffffffffffff168373ffffffffffffffffffffffffffffffffffffffff161461249a576040517f08c379a0000000000000000000000000000000000000000000000000000000008152600401612491906136fb565b60405180910390fd5b505050565b505050565b60006124c58473ffffffffffffffffffffffffffffffffffffffff1661263b565b1561262e578373ffffffffffffffffffffffffffffffffffffffff1663150b7a026124ee6119fc565b8786866040518563ffffffff1660e01b8152600401612510949392919061344b565b602060405180830381600087803b15801561252a57600080fd5b505af192505050801561255b57506040513d601f19601f820116820180604052508101906125589190612ba5565b60015b6125de573d806000811461258b576040519150601f19603f3d011682016040523d82523d6000602084013e612590565b606091505b506000815114156125d6576040517f08c379a00000000000000000000000000000000000000000000000000000000081526004016125cd9061353b565b60405180910390fd5b805181602001fd5b63150b7a0260e01b7bffffffffffffffffffffffffffffffffffffffffffffffffffffffff1916817bffffffffffffffffffffffffffffffffffffffffffffffffffffffff191614915050612633565b600190505b949350505050565b6000808273ffffffffffffffffffffffffffffffffffffffff163b119050919050565b60405180606001604052806003905b606081526020019060019003908161266d5790505090565b6000612698612693846137bb565b613796565b905080828560408602820111156126ae57600080fd5b60005b858110156126de57816126c48882612828565b8452602084019350604083019250506001810190506126b1565b5050509392505050565b60006126fb6126f6846137e1565b613796565b9050808285602086028201111561271157600080fd5b60005b8581101561274157816127278882612909565b845260208401935060208301925050600181019050612714565b5050509392505050565b600061275e61275984613807565b613796565b9050808285602086028201111561277457600080fd5b60005b858110156127a4578161278a8882612909565b845260208401935060208301925050600181019050612777565b5050509392505050565b60006127c16127bc8461382d565b613796565b9050828152602081018484840111156127d957600080fd5b6127e4848285613ad1565b509392505050565b6000813590506127fb8161446a565b92915050565b600082601f83011261281257600080fd5b600261281f848285612685565b91505092915050565b600082601f83011261283957600080fd5b60026128468482856126e8565b91505092915050565b600082601f83011261286057600080fd5b600461286d84828561274b565b91505092915050565b60008135905061288581614481565b92915050565b60008151905061289a81614481565b92915050565b6000813590506128af81614498565b92915050565b6000813590506128c4816144af565b92915050565b6000815190506128d9816144af565b92915050565b600082601f8301126128f057600080fd5b81356129008482602086016127ae565b91505092915050565b600081359050612918816144c6565b92915050565b60006020828403121561293057600080fd5b600061293e848285016127ec565b91505092915050565b6000806040838503121561295a57600080fd5b6000612968858286016127ec565b9250506020612979858286016127ec565b9150509250929050565b60008060006060848603121561299857600080fd5b60006129a6868287016127ec565b93505060206129b7868287016127ec565b92505060406129c886828701612909565b9150509250925092565b600080600080608085870312156129e857600080fd5b60006129f6878288016127ec565b9450506020612a07878288016127ec565b9350506040612a1887828801612909565b925050606085013567ffffffffffffffff811115612a3557600080fd5b612a41878288016128df565b91505092959194509250565b60008060408385031215612a6057600080fd5b6000612a6e858286016127ec565b9250506020612a7f85828601612876565b9150509250929050565b60008060408385031215612a9c57600080fd5b6000612aaa858286016127ec565b9250506020612abb85828601612909565b9150509250929050565b6000806000806101808587031215612adc57600080fd5b6000612aea87828801612828565b9450506040612afb87828801612801565b93505060c0612b0c87828801612828565b925050610100612b1e8782880161284f565b91505092959194509250565b600060208284031215612b3c57600080fd5b6000612b4a8482850161288b565b91505092915050565b600060208284031215612b6557600080fd5b6000612b73848285016128a0565b91505092915050565b600060208284031215612b8e57600080fd5b6000612b9c848285016128b5565b91505092915050565b600060208284031215612bb757600080fd5b6000612bc5848285016128ca565b91505092915050565b600060208284031215612be057600080fd5b600082013567ffffffffffffffff811115612bfa57600080fd5b612c06848285016128df565b91505092915050565b600060208284031215612c2157600080fd5b6000612c2f84828501612909565b91505092915050565b6000612c448383612ce5565b60408301905092915050565b6000612c5c8383613297565b60208301905092915050565b612c7181613a53565b82525050565b612c88612c8382613a53565b613bbf565b82525050565b612c978161387c565b612ca181846138da565b9250612cac8261385e565b8060005b83811015612cdd578151612cc48782612c38565b9650612ccf836138b3565b925050600181019050612cb0565b505050505050565b612cee81613887565b612cf881846138e5565b9250612d0382613868565b8060005b83811015612d34578151612d1b8782612c50565b9650612d26836138c0565b925050600181019050612d07565b505050505050565b612d4581613887565b612d4f81846138f0565b9250612d5a82613868565b8060005b83811015612d8b578151612d728782612c50565b9650612d7d836138c0565b925050600181019050612d5e565b505050505050565b612d9c81613892565b612da681846138fb565b9250612db182613872565b8060005b83811015612de2578151612dc98782612c50565b9650612dd4836138cd565b925050600181019050612db5565b505050505050565b612df381613a65565b82525050565b612e0a612e0582613a71565b613bd1565b82525050565b6000612e1b8261389d565b612e258185613906565b9350612e35818560208601613ae0565b612e3e81613cb3565b840191505092915050565b6000612e548261389d565b612e5e8185613917565b9350612e6e818560208601613ae0565b80840191505092915050565b6000612e85826138a8565b612e8f8185613922565b9350612e9f818560208601613ae0565b612ea881613cb3565b840191505092915050565b6000612ebe826138a8565b612ec88185613933565b9350612ed8818560208601613ae0565b80840191505092915050565b6000612ef1600e83613933565b9150612efc82613cd1565b600e82019050919050565b6000612f14600d83613933565b9150612f1f82613cfa565b600d82019050919050565b6000612f37602b83613922565b9150612f4282613d23565b604082019050919050565b6000612f5a603283613922565b9150612f6582613d72565b604082019050919050565b6000612f7d601783613933565b9150612f8882613dc1565b601782019050919050565b6000612fa0602583613922565b9150612fab82613dea565b604082019050919050565b6000612fc3601c83613922565b9150612fce82613e39565b602082019050919050565b6000612fe6600383613933565b9150612ff182613e62565b600382019050919050565b6000613009602483613922565b915061301482613e8b565b604082019050919050565b600061302c601983613922565b915061303782613eda565b602082019050919050565b600061304f602c83613922565b915061305a82613f03565b604082019050919050565b600061307361013883613933565b915061307e82613f52565b61013882019050919050565b6000613097603883613922565b91506130a2826140d3565b604082019050919050565b60006130ba600c83613933565b91506130c582614122565b600c82019050919050565b60006130dd600e83613922565b91506130e88261414b565b602082019050919050565b6000613100602a83613922565b915061310b82614174565b604082019050919050565b6000613123602983613922565b915061312e826141c3565b604082019050919050565b6000613146600283613933565b915061315182614212565b600282019050919050565b6000613169602083613922565b91506131748261423b565b602082019050919050565b600061318c602c83613922565b915061319782614264565b604082019050919050565b60006131af602183613922565b91506131ba826142b3565b604082019050919050565b60006131d2601d83613933565b91506131dd82614302565b601d82019050919050565b60006131f5603183613922565b91506132008261432b565b604082019050919050565b6000613218602583613922565b91506132238261437a565b604082019050919050565b600061323b602c83613922565b9150613246826143c9565b604082019050919050565b600061325e600d83613922565b915061326982614418565b602082019050919050565b6000613281600f83613922565b915061328c82614441565b602082019050919050565b6132a081613ac7565b82525050565b6132af81613ac7565b82525050565b6132c66132c182613ac7565b613bed565b82525050565b60006132d88284612c77565b60148201915081905092915050565b60006132f38284612df9565b60208201915081905092915050565b600061330e8286612eb3565b915061331a8285612eb3565b91506133268284612eb3565b9150819050949350505050565b600061333f8286612eb3565b915061334a82612fd9565b91506133568285612eb3565b915061336182612f70565b915061336d8284612eb3565b9150819050949350505050565b6000613385826130ad565b91506133918287612e49565b915061339c82612f07565b91506133a88286612e49565b91506133b382612ee4565b91506133bf82856132b5565b6020820191506133ce82613065565b91506133da8284612eb3565b91506133e582613139565b915081905095945050505050565b60006133fe826131c5565b915061340a8284612eb3565b915081905092915050565b600061342182846132b5565b60208201915081905092915050565b60006020820190506134456000830184612c68565b92915050565b60006080820190506134606000830187612c68565b61346d6020830186612c68565b61347a60408301856132a6565b818103606083015261348c8184612e10565b905095945050505050565b6000610180820190506134ad6000830187612d3c565b6134ba6040830186612c8e565b6134c760c0830185612d3c565b6134d5610100830184612d93565b95945050505050565b60006020820190506134f36000830184612dea565b92915050565b600060208201905081810360008301526135138184612e7a565b905092915050565b6000602082019050818103600083015261353481612f2a565b9050919050565b6000602082019050818103600083015261355481612f4d565b9050919050565b6000602082019050818103600083015261357481612f93565b9050919050565b6000602082019050818103600083015261359481612fb6565b9050919050565b600060208201905081810360008301526135b481612ffc565b9050919050565b600060208201905081810360008301526135d48161301f565b9050919050565b600060208201905081810360008301526135f481613042565b9050919050565b600060208201905081810360008301526136148161308a565b9050919050565b60006020820190508181036000830152613634816130d0565b9050919050565b60006020820190508181036000830152613654816130f3565b9050919050565b6000602082019050818103600083015261367481613116565b9050919050565b600060208201905081810360008301526136948161315c565b9050919050565b600060208201905081810360008301526136b48161317f565b9050919050565b600060208201905081810360008301526136d4816131a2565b9050919050565b600060208201905081810360008301526136f4816131e8565b9050919050565b600060208201905081810360008301526137148161320b565b9050919050565b600060208201905081810360008301526137348161322e565b9050919050565b6000602082019050818103600083015261375481613251565b9050919050565b6000602082019050818103600083015261377481613274565b9050919050565b600060208201905061379060008301846132a6565b92915050565b60006137a06137b1565b90506137ac8282613b45565b919050565b6000604051905090565b600067ffffffffffffffff8211156137d6576137d5613c84565b5b602082029050919050565b600067ffffffffffffffff8211156137fc576137fb613c84565b5b602082029050919050565b600067ffffffffffffffff82111561382257613821613c84565b5b602082029050919050565b600067ffffffffffffffff82111561384857613847613c84565b5b61385182613cb3565b9050602081019050919050565b6000819050919050565b6000819050919050565b6000819050919050565b600060029050919050565b600060029050919050565b600060049050919050565b600081519050919050565b600081519050919050565b6000602082019050919050565b6000602082019050919050565b6000602082019050919050565b600081905092915050565b600081905092915050565b600081905092915050565b600081905092915050565b600082825260208201905092915050565b600081905092915050565b600082825260208201905092915050565b600081905092915050565b600061394982613ac7565b915061395483613ac7565b9250827fffffffffffffffffffffffffffffffffffffffffffffffffffffffffffffffff0382111561398957613988613bf7565b5b828201905092915050565b600061399f82613ac7565b91506139aa83613ac7565b9250826139ba576139b9613c26565b5b828204905092915050565b60006139d082613ac7565b91506139db83613ac7565b9250817fffffffffffffffffffffffffffffffffffffffffffffffffffffffffffffffff0483118215151615613a1457613a13613bf7565b5b828202905092915050565b6000613a2a82613ac7565b9150613a3583613ac7565b925082821015613a4857613a47613bf7565b5b828203905092915050565b6000613a5e82613aa7565b9050919050565b60008115159050919050565b6000819050919050565b60007fffffffff0000000000000000000000000000000000000000000000000000000082169050919050565b600073ffffffffffffffffffffffffffffffffffffffff82169050919050565b6000819050919050565b82818337600083830152505050565b60005b83811015613afe578082015181840152602081019050613ae3565b83811115613b0d576000848401525b50505050565b60006002820490506001821680613b2b57607f821691505b60208210811415613b3f57613b3e613c55565b5b50919050565b613b4e82613cb3565b810181811067ffffffffffffffff82111715613b6d57613b6c613c84565b5b80604052505050565b6000613b8182613ac7565b91507fffffffffffffffffffffffffffffffffffffffffffffffffffffffffffffffff821415613bb457613bb3613bf7565b5b600182019050919050565b6000613bca82613bdb565b9050919050565b6000819050919050565b6000613be682613cc4565b9050919050565b6000819050919050565b7f4e487b7100000000000000000000000000000000000000000000000000000000600052601160045260246000fd5b7f4e487b7100000000000000000000000000000000000000000000000000000000600052601260045260246000fd5b7f4e487b7100000000000000000000000000000000000000000000000000000000600052602260045260246000fd5b7f4e487b7100000000000000000000000000000000000000000000000000000000600052604160045260246000fd5b6000601f19601f8301169050919050565b60008160601b9050919050565b7f222c2022646567726565223a2022000000000000000000000000000000000000600082015250565b7f222c20226f776e6572223a202200000000000000000000000000000000000000600082015250565b7f455243373231456e756d657261626c653a206f776e657220696e646578206f7560008201527f74206f6620626f756e6473000000000000000000000000000000000000000000602082015250565b7f4552433732313a207472616e7366657220746f206e6f6e20455243373231526560008201527f63656976657220696d706c656d656e7465720000000000000000000000000000602082015250565b7f74682064656772656520667269656e6473207769746820000000000000000000600082015250565b7f4552433732313a207472616e736665722066726f6d20696e636f72726563742060008201527f6f776e6572000000000000000000000000000000000000000000000000000000602082015250565b7f4552433732313a20746f6b656e20616c7265616479206d696e74656400000000600082015250565b7f6973200000000000000000000000000000000000000000000000000000000000600082015250565b7f4552433732313a207472616e7366657220746f20746865207a65726f2061646460008201527f7265737300000000000000000000000000000000000000000000000000000000602082015250565b7f4552433732313a20617070726f766520746f2063616c6c657200000000000000600082015250565b7f4552433732313a206f70657261746f7220717565727920666f72206e6f6e657860008201527f697374656e7420746f6b656e0000000000000000000000000000000000000000602082015250565b7f222c20226465736372697074696f6e223a2022455448646f732061726520457260008201527f646f73206e756d626572204e465473206f6e20457468657265756d2e2054686560208201527f792070726f766520796f757220646567726565206f662073657065726174696f60408201527f6e2066726f6d20746865206f726967696e206164647265737320776974686f7560608201527f742072657665616c696e6720616e797468696e672061626f757420746865206660808201527f7269656e64207061746820746f2074686520776f726c642028616e6420796f7560a08201527f7273656c66292e20455448446f73207573657320726563757273697665205a4b60c08201527f20534e41524b7320746f20696e73696e75617465207468697320736f6369616c60e08201527f206578706572696d656e742067616d652e222c2022696d616765223a202264616101008201527f74613a696d6167652f7376672b786d6c3b6261736536342c000000000000000061012082015250565b7f4552433732313a20617070726f76652063616c6c6572206973206e6f74206f7760008201527f6e6572206e6f7220617070726f76656420666f7220616c6c0000000000000000602082015250565b7f7b226f726967696e223a20220000000000000000000000000000000000000000600082015250565b7f496e76616c69642053656e646572000000000000000000000000000000000000600082015250565b7f4552433732313a2062616c616e636520717565727920666f7220746865207a6560008201527f726f206164647265737300000000000000000000000000000000000000000000602082015250565b7f4552433732313a206f776e657220717565727920666f72206e6f6e657869737460008201527f656e7420746f6b656e0000000000000000000000000000000000000000000000602082015250565b7f227d000000000000000000000000000000000000000000000000000000000000600082015250565b7f4552433732313a206d696e7420746f20746865207a65726f2061646472657373600082015250565b7f4552433732313a20617070726f76656420717565727920666f72206e6f6e657860008201527f697374656e7420746f6b656e0000000000000000000000000000000000000000602082015250565b7f4552433732313a20617070726f76616c20746f2063757272656e74206f776e6560008201527f7200000000000000000000000000000000000000000000000000000000000000602082015250565b7f646174613a6170706c69636174696f6e2f6a736f6e3b6261736536342c000000600082015250565b7f4552433732313a207472616e736665722063616c6c6572206973206e6f74206f60008201527f776e6572206e6f7220617070726f766564000000000000000000000000000000602082015250565b7f43616e6e6f74207472616e73666572202d20455448444f5320697320736f756c60008201527f626f756e64000000000000000000000000000000000000000000000000000000602082015250565b7f455243373231456e756d657261626c653a20676c6f62616c20696e646578206f60008201527f7574206f6620626f756e64730000000000000000000000000000000000000000602082015250565b7f496e76616c69642050726f6f6600000000000000000000000000000000000000600082015250565b7f696e76616c6964207369676e616c730000000000000000000000000000000000600082015250565b61447381613a53565b811461447e57600080fd5b50565b61448a81613a65565b811461449557600080fd5b50565b6144a181613a71565b81146144ac57600080fd5b50565b6144b881613a7b565b81146144c357600080fd5b50565b6144cf81613ac7565b81146144da57600080fd5b5056fe3c73766720786d6c6e733d22687474703a2f2f7777772e77332e6f72672f323030302f73766722207072657365727665417370656374526174696f3d22784d696e594d696e206d656574222076696577426f783d223020302033353020333530223e3c7374796c653e2e62617365207b2066696c6c3a2077686974653b20666f6e742d66616d696c793a2073657269663b20666f6e742d73697a653a20313470783b207d3c2f7374796c653e3c726563742077696474683d223130302522206865696768743d2231303025222066696c6c3d22626c61636b22202f3e3c7465787420783d2231302220793d2232302220636c6173733d2262617365223e4142434445464748494a4b4c4d4e4f505152535455565758595a6162636465666768696a6b6c6d6e6f707172737475767778797a303132333435363738392b2fa2646970667358221220e631056006d821ecc5cf145fcd5831a8220749bd6322861169000378d2ed381e64736f6c63430008010033",
  "linkReferences": {},
  "deployedLinkReferences": {}
}